:020000040000fa
:080000000002040000000000f2
:020000040000fa
:040008006003000091
:020000040000fa
:04000c00600300008d
:020000040000fa
:040010006003000089
:020000040000fa
:040014006003000085
:020000040000fa
:040018006003000081
:020000040000fa
:04001c00600300007d
:020000040000fa
:040020006003000079
:020000040000fa
:040024006003000075
:020000040000fa
:040028006003000071
:020000040000fa
:04002c00600300006d
:020000040000fa
:040030006003000069
:020000040000fa
:0400340002030000c3
:020000040000fa
:040038006003000061
:020000040000fa
:04003c00600300005d
:020000040000fa
:040040006003000059
:020000040000fa
:040044006003000055
:020000040000fa
:04004800fa020000b8
:020000040000fa
:04004c00600300004d
:020000040000fa
:040050006003000049
:020000040000fa
:040054006003000045
:020000040000fa
:040058006003000041
:020000040000fa
:04005c003c03000061
:020000040000fa
:040060006003000039
:020000040000fa
:040064006003000035
:020000040000fa
:040068006003000031
:020000040000fa
:04006c00600300002d
:020000040000fa
:040070006003000029
:020000040000fa
:040074006003000025
:020000040000fa
:040078006003000021
:020000040000fa
:04007c00600300001d
:020000040000fa
:040080006003000019
:020000040000fa
:040084006003000015
:020000040000fa
:040088006003000011
:020000040000fa
:04008c00600300000d
:020000040000fa
:040090006003000009
:020000040000fa
:040094002403000041
:020000040000fa
:040098006003000001
:020000040000fa
:04009c0060030000fd
:020000040000fa
:0400a00060030000f9
:020000040000fa
:0400a40060030000f5
:020000040000fa
:0400a80060030000f1
:020000040000fa
:0400ac0060030000ed
:020000040000fa
:0400b00060030000e9
:020000040000fa
:0400b40060030000e5
:020000040000fa
:0400b80060030000e1
:020000040000fa
:0400bc0060030000dd
:020000040000fa
:0400c00060030000d9
:020000040000fa
:0400c40060030000d5
:020000040000fa
:0400c80060030000d1
:020000040000fa
:0400cc0060030000cd
:020000040000fa
:0400d00060030000c9
:020000040000fa
:0400d40060030000c5
:020000040000fa
:0400d80060030000c1
:020000040000fa
:0400dc0060030000bd
:020000040000fa
:0400e00060030000b9
:020000040000fa
:0400e40060030000b5
:020000040000fa
:0400e80060030000b1
:020000040000fa
:0400ec0060030000ad
:020000040000fa
:0400f00060030000a9
:020000040000fa
:0400f40060030000a5
:020000040000fa
:0400f80060030000a1
:020000040000fa
:0400fc00600300009d
:020000040000fa
:040100006003000098
:020000040000fa
:040104006003000094
:020000040000fa
:040108006003000090
:020000040000fa
:04010c00600300008c
:020000040000fa
:040110006003000088
:020000040000fa
:040114006003000084
:020000040000fa
:040118006003000080
:020000040000fa
:04011c00600300007c
:020000040000fa
:040120006003000078
:020000040000fa
:040124006003000074
:020000040000fa
:040128006003000070
:020000040000fa
:04012c00600300006c
:020000040000fa
:040130006003000068
:020000040000fa
:040134006003000064
:020000040000fa
:040138006003000060
:020000040000fa
:04013c00600300005c
:020000040000fa
:040140006003000058
:020000040000fa
:040144006003000054
:020000040000fa
:040148006003000050
:020000040000fa
:04014c00600300004c
:020000040000fa
:040150006003000048
:020000040000fa
:040154006003000044
:020000040000fa
:040158006003000040
:020000040000fa
:04015c00600300003c
:020000040000fa
:040160006003000038
:020000040000fa
:040164006003000034
:020000040000fa
:040168006003000030
:020000040000fa
:04016c00600300002c
:020000040000fa
:040170006003000028
:020000040000fa
:040174006003000024
:020000040000fa
:040178006003000020
:020000040000fa
:04017c00600300001c
:020000040000fa
:040180006003000018
:020000040000fa
:040184006003000014
:020000040000fa
:040188006003000010
:020000040000fa
:04018c00600300000c
:020000040000fa
:040190006003000008
:020000040000fa
:040194006003000004
:020000040000fa
:040198006003000000
:020000040000fa
:04019c0060030000fc
:020000040000fa
:0401a00060030000f8
:020000040000fa
:0401a40060030000f4
:020000040000fa
:0401a80060030000f0
:020000040000fa
:0401ac0060030000ec
:020000040000fa
:0401b00060030000e8
:020000040000fa
:0401b40060030000e4
:020000040000fa
:0401b80060030000e0
:020000040000fa
:0401bc0060030000dc
:020000040000fa
:0401c00060030000d8
:020000040000fa
:0401c40060030000d4
:020000040000fa
:0401c80060030000d0
:020000040000fa
:0401cc0060030000cc
:020000040000fa
:0401d00060030000c8
:020000040000fa
:0401d40060030000c4
:020000040000fa
:0401d80060030000c0
:020000040000fa
:0401dc0060030000bc
:020000040000fa
:0401e00060030000b8
:020000040000fa
:0401e40060030000b4
:020000040000fa
:0401e80060030000b0
:020000040000fa
:0401ec0060030000ac
:020000040000fa
:0401f00060030000a8
:020000040000fa
:0401f40060030000a4
:020000040000fa
:0401f80060030000a0
:020000040000fa
:0401fc00600300009c
:020000040000fa
:040200006003000097
:020000040000fa
:040204006003000093
:020000040000fa
:04020800600300008f
:020000040000fa
:04020c00600300008b
:020000040000fa
:040210006003000087
:020000040000fa
:040214006003000083
:020000040000fa
:04021800600300007f
:020000040000fa
:04021c00600300007b
:020000040000fa
:040220006003000077
:020000040000fa
:040224006003000073
:020000040000fa
:04022800600300006f
:020000040000fa
:04022c00600300006b
:020000040000fa
:040230006003000067
:020000040000fa
:040234006003000063
:020000040000fa
:04023800600300005f
:020000040000fa
:04023c00600300005b
:020000040000fa
:040240006003000057
:020000040000fa
:040244006003000053
:020000040000fa
:04024800600300004f
:020000040000fa
:04024c00600300004b
:020000040000fa
:040250006003000047
:020000040000fa
:040254006003000043
:020000040000fa
:04025800600300003f
:020000040000fa
:04025c00600300003b
:020000040000fa
:040260006003000037
:020000040000fa
:040264006003000033
:020000040000fa
:04026800600300002f
:020000040000fa
:04026c00600300002b
:020000040000fa
:040270006003000027
:020000040000fa
:040274006003000023
:020000040000fa
:04027800600300001f
:020000040000fa
:04027c00600300001b
:020000040000fa
:040280006003000017
:020000040000fa
:100400006f0421000eff2c000e0188000000000088
:10041000000020000000e000020032000001200087
:100420002002880014000700a70007000000e00079
:1004300003003a00402121000100200002003700a3
:100440000000200001002000810f70000100320038
:100450000f000700000020000000e0000200320052
:100460000000020000000000aa0c020000000000d2
:100470000040da000000fe00200020000000e00044
:1004800002003200100020009001880000000600e9
:10049000a1028800800478000000eb001f003700f4
:1004a000e284440054a0b4009905ba00e2844400f8
:1004b00054a0b4009906ba00e284440054a0b400e9
:1004c0000006eb00476fde00fd07b200ae018800ba
:1004d000636ce10003003a000ad801000000eb0061
:1004e0000e003700606ce10008003a00004deb00a0
:1004f0000a05e800020039003420ec000af0a000f0
:100500008b05e900f9ff3e00040037006168e10057
:10051000010032000086eb000b00070019c7ba008b
:100520000e04e0001905ba0003003a000a00e000da
:10053000dbff3a0000000600fe07b200ae028800b2
:100540008a047800f5ff37000cd0a300e20f4d00bd
:100550001c00390089027800354dba000a05e80010
:10056000020039003420ec000af0a0008b05e900fd
:100570000f003200254dba000a05e80002003900dc
:100580003420ec000af0a0008b05e90008003200de
:100590000c00e0000600320015cdba000a05e800a4
:1005a000020039003420ec000af0a0008b05e900bd
:1005b0008984e80054a0b4000b00e000e2ff3a0098
:1005c000000006009902ba00055d78008b05e9007d
:1005d000f7ff3200c82ade00055d78008b05e900d0
:1005e000f3ff32000c00e000f1ff320019ddba0029
:1005f000eeff37000000fa000108a9000080fa00b1
:10060000004006003600f800809fbe00829fbe00ba
:10061000849fbe00869fbe000000fa000068a9000b
:10062000d1050700440707001e0307000080fa00f9
:100630004f03be004f02be004f01be004f00be0080
:100640003600f90000400600809fbe000000fa005e
:100650000368a900008080001180800061004000d4
:10066000e080480000808800118088000080fa0047
:100670004f00be0000400600801f78000000fa0016
:1006800001a8a900001880002082880010188000ae
:1006900010828800201880000082880030188000b6
:1006a000f081880040188000e081880010c0b3000d
:1006b0000ff0b7000080fa004f00780000400600fd
:1006c0000040da000000fe000000050003f0a20078
:1006d000889fbe008a9fbe008c1f78001b01070008
:1006e000220133006450e1004f0032006420e10039
:1006f0005200320003826c0007003b000905d00065
:100700000306d000820f54000c065d000200390081
:1007100002003200890178000306780085825500c6
:1007200004003d000003fd008103fd008502ea0096
:100730008b854200840f720002003b0060001000b5
:10074000e08018006011b8000005eb007a28e10095
:100750000a00390006007800c75ddd00f707b20027
:10076000878075002d003700828171000a017800b2
:10077000610560008180d1000080d3008502e9001e
:10078000f9ff3b00060440008784480002003b005c
:1007900060041400e0841c000988a30007003200f4
:1007a0008a81710082817100610164008904d10035
:1007b0000884d3008b05e800170037000978a300f0
:1007c00013003a000b00e000130034008b05e90031
:1007d0000804440089844c000a4474000978a3008a
:1007e0000d003a000b00e000070034008b05e90023
:1007f0000804440089844c0001003a000b002000ea
:100800000978a300f7ff32000001eb000200370077
:10081000828171000a017800910007000cf0a700a6
:1008200001f0a000da0037006420e10002003a0085
:10083000838f6c00da0033000801be000200be00a6
:10084000d3003700889fbe008a9fbe008c1f7800af
:10085000be000700c500330003866c006450e10051
:100860002e0032006420e100330032006150e100cc
:100870002f0032006120e1003100320085855500f3
:10088000eb07b00009002000080420000500370035
:100890000804440089844c000a0031000603430028
:1008a00087834b000001530081815b00f8ff330018
:1008b0000203be000800a0000804440089844c0024
:1008c000f6ff3900c639dd008301730001003200f4
:1008d000130020008904d1000884d3000998a300e4
:1008e000050032000800a7000300a0008904d10021
:1008f0000884d3008b05e8008904d1000884d30064
:100900000001eb000281d2005500070001f0a100b8
:100910000cf0a70001f0a0009d0037006420e1006a
:100920009f0032000801be000200be00f7ff370042
:100930006120e1009a0032006000b800f3ff370048
:100940000000200001f82700f0ff3700140020000d
:10095000ca003700f4ff2f00c80037000001be00b6
:10096000650007000470a70003f0a1006509b1004d
:10097000160032000d0035006828e1000600350041
:10098000f0ff2f00f1ff27000300e00013003b0001
:1009900001002800000005000000400081804800a0
:1009a0008502e900fcff3a0008003700f88f42009a
:1009b00002003c008000eb00000005008100d10037
:1009c0000080d3008502e800fcff3a000300e0004d
:1009d00002003b0060001000e080180000000600ec
:1009e0000001be00440007000470a70003f0a1004e
:1009f00003f8a30013003a006509b10010003200ab
:100a0000090035006928e1000200350001002800d6
:100a10000000050000004000818048008502e900d8
:100a2000fcff3a0000000600f88f42000500350088
:100a30008100d1000080d3008502e800fcff3a006d
:100a4000000006008000eb00000005004f89de007a
:100a500082017800a40037006011b800b2003700ae
:100a600081002000618055000b003d000b0020003c
:100a700061fe2f000100e1001d0034008281710041
:100a8000610164008904d1000884d3000000e800fb
:100a9000faff3a007100200061006400030070005a
:100aa000020060000900320061044400e0844c0050
:100ab0000988a500050032008b05e8006808e10000
:100ac00002003a008904d1000884d300f20f20000c
:100ad0000258e10005003d00c75ddd00f907b200e6
:100ae0008980750008007800000006000bf82700d8
:100af0008b00780000000500c70ade00f107b20095
:100b0000f50fb20008003200e1cf420002003200cf
:100b10000170a00024000500810f70000100320068
:100b20000408050044000500810f700002003a002f
:100b3000140005008502e9000000400081c0480063
:100b4000fcff3b000170a000240005000004be0073
:100b5000e9ff07000003be000405be000200be005e
:100b6000e5ff0700844f7500000006000200be008c
:100b70006450e100050036006420e1000200360008
:100b80000968a30001003a000800be000160a0004f
:100b90004f0678004f05be004f04be00000006005f
:100ba000f0ff2f00f1ff2700f9ff3700889fbe00fc
:100bb0008a9fbe008c1f7800e4ff0700ebff330024
:100bc00003866c006450e100240032006420e100e0
:100bd000270032006150e100220032006120e10074
:100be000210032008b854200eb07b1000134b800d0
:100bf000003ab8000804420089844a00013ab8006b
:100c00000030b8008880400009014a000400330029
:100c10000000400081804800020149008b05e90086
:100c2000c909dd00830170000100320013002000bb
:100c3000c814de004814dd004709de001200b200cf
:100c4000c808de000884700085ff070001f0a100dd
:100c50000cf0a70001f0a000cdff37006120e100fb
:100c6000cfff32000801be000200be00f7ff3700d0
:100c70006150e100fcff3a00c9ff3700889fbe00c9
:100c80008a9fbe00841f7800b0ff07004f007800e5
:100c900011003300f0ff2f00838f6c0006003b0033
:100ca000040565000a00a7000800370009f0a60047
:100cb0001000200008003700820f5400838f5c0072
:100cc000030039001000200001003e000000200059
:100cd00009f0a7000000ea004f05be004f04be0067
:100ce0000000e00000000600881f78000304780080
:100cf0000300e00007003d0060001000e0801800e5
:100d000060011900e081190002003b0001f02d0094
:100d1000030037000400070008f0a70001f0a0005e
:100d20004f04780000000600889fbe008a9fbe0026
:100d300000827000040271000482710026003200fb
:100d40000004be000200be006011b8006b09200064
:100d5000950220000182cf000a0039000541b10050
:100d60000082cf00070039000541b1000982cf00a1
:100d7000040039000541b1000882cf0001003900ac
:100d80000541b10005425200120032000a003b004a
:100d900082817100610164008100d1000080d30074
:100da0008984d3000884d3008b05e8000442e8005e
:100db000f7ff3a00070037000804440089844c001c
:100dc00000004800818048008b05e9000442e900ea
:100dd000f9ff3a0022ff07004f05be004f04be0096
:040de0000000060009
:020000040000fa
:100de4000200fa00881f78000040eb00004f7800f2
:100df400608180007181800018c0b300020020006f
:100e0400831c2400d0fe07000000e0000100350030
:100e14000044eb000804e0000300320030c0b300db
:100e2400004f7800f2003700a0818000b18180007b
:100e340018c0b30002002000031a2400c4fe0700f7
:100e44000000e00001003c000044eb000804e00066
:100e54002f003200408180005181800018c0b3000f
:100e640002002000c3202400b9fe07000000e000b7
:100e740001003c000044eb000804e00024003200c0
:100e8400608180007181800018c0b30002002000de
:100e940083242400aefe07000000e00001003c00b3
:100ea4000044eb000804e000190032008081800057
:100eb4009181800018c0b30002002000c3202400e8
:100ec400a3fe07000000e00001003c000044eb002a
:100ed4000804e0000e003200c0818000d18180004f
:100ee40018c0b30002002000031a240098fe070073
:100ef4000000e00001003c000044eb000804e000b6
:100f04000300320060c0b300004f7800b80037001f
:100f1400a0818000b181800018c0b30002002000cd
:100f2400031224008afe07000000e00001003c00d8
:100f34000044eb000804e0003a00320040818000e5
:100f44005181800018c0b30002002000831c2400db
:100f54007ffe07000000e00001003c000044eb00bd
:100f64000804e0002f00320060818000718180005d
:100f740018c0b30002002000031a240074fe070006
:100f84000000e00001003c000044eb000804e00025
:100f940024003200608180007181800018c0b30099
:100fa400020020008324240067fe07000000e00004
:100fb400010035000044eb000804e0001900320091
:100fc400808180009181800018c0b300020020005d
:100fd400831c24005efe07000000e00001003c00ca
:100fe4000044eb000804e0000e003200c0818000e1
:100ff400d181800018c0b300020020000312240035
:1010040053fe07000000e00001003c000044eb0038
:101014000804e000030032000040eb00004f7800b9
:1010240073003700a0818000b181800018c0b30034
:10103400020020000322240043fe07000000e00019
:10104400010035000044eb000804e0002f003200ea
:10105400408180005181800018c0b300020020004c
:10106400c320240038fe07000000e0000100350022
:101074000044eb000804e00024003200608180009a
:101084007181800018c0b30002002000031a2400fc
:101094002ffe07000000e00001003c000044eb00cc
:1010a4000804e000190032008081800091818000f2
:1010b40018c0b30002002000031f240024fe070010
:1010c4000000e00001003c000044eb000804e000e4
:1010d4000e003200c0818000d181800018c0b300ae
:1010e40002002000c320240019fe07000000e000d5
:1010f40001003c000044eb000804e000030032005f
:1011040020c0b300004f780039003700a081800070
:10111400b181800018c0b30002002000c320240065
:101124000bfe07000000e00001003c000044eb005f
:101134000804e0002e0032004081800051818000cc
:1011440018c0b30002002000031f240000fe0700a3
:101154000000e00001003c000044eb000804e00053
:1011640023003200608180007181800018c0b300c8
:1011740002002000031a2400f5fd07000000e0002f
:1011840001003c000044eb000804e00018003200b9
:10119400808180009181800018c0b300020020008b
:1011a400c3202400e8fd07000000e0000100350032
:1011b4000044eb000804e0000d003200c081800010
:1011c400d181800018c0b300020020000322240053
:1011d400ddfd07000000e000010035000044eb00e5
:1011e4000804e0000200320010c0b300004f780091
:1011f4001e4078000004e00003003a0020c0b30061
:1012040010f0b7001a0037001e407800e64f500077
:1012140003003a0000c1b30010f0b7001400370017
:101224001e407800e24f500003003a0040c0b30073
:1012340010f0b7000e0037001e407800e14f500058
:1012440003003a0060c0b30010f0b7000800370094
:101254001e407800e34f500003003a0080c0b30002
:1012640010f0b70002003700a0c0b30010f0b700c0
:1012740010d0bf008080fb0011d0bf000080fb00b5
:101284000000e900808f50000200320010d0bf003f
:1012940011f0b7004f0478000080fa000000060047
:1012a4000000fa001172800000002200008060003b
:1012b4000000e00081003200028080001380800082
:1012c400007d200001002000800f5100818f590013
:1012d4008500360011d0bf000080fb00cf80de0007
:1012e4001201200003002000820f5000838f580059
:1012f40070003e000006010011003700180037009e
:101304001a00370024003700420037004c00370031
:10131400330037003d0037004b00370055003700dd
:101324005600370060003700620037006100370064
:10133400600037005f0037001900370026003700cf
:1013440012c0b3006000b800270307000041eb009f
:101354006000b8002403070010c0b30011f0b70008
:1013640020c0b30011f0b7006000370012c0b30012
:1013740000002000011024001b0307000041eb00c3
:1013840000002000011024001703070030c0b30040
:1013940011f0b7005500370091fe070053003700e5
:1013a40012c0b30000002000012224000e03070035
:1013b4000041eb0000002000012224000a03070082
:1013c40064cea80064eea800254ea80010c1b300a6
:1013d40011f0b7004500370081fe070043003700d5
:1013e40012c0b30000002000011a2400fe0207000e
:1013f4000041eb0000002000010a2c00fa02070063
:1014040070c0b30011f0b7003800370074fe070055
:101414003600370012c0b30000002000010a2c007f
:10142400f10207000041eb0000002000011a240033
:10143400ed02070050c0b30011f0b7002b003700d5
:1014440067fe07002900370012c0b3000000200027
:1014540001172c00e40207000041eb00000020000b
:1014640001172400e002070090c0b30011f0b70098
:101474001e0037005afe07001c00370012c0b300dc
:101484000000200001172400d70207000041eb00f0
:101494000000200001172c00d3020700b0c0b300e5
:1014a40011f0b700110037004dfe070000000000e6
:1014b4000e0037001170ef000c0037000030ef0011
:1014c4000230ef0012c0b3006000b800c60207008b
:1014d4000041eb006000b800c302070010c0b30075
:1014e40011f0b70001003700000000000080fa008e
:1014f400000006000000fa0013e1a90011e1a900b0
:101504001061a8001021a90081088000f0fc2f00c0
:1015140000806000800888000a21ef000621ef00a7
:10152400404c20007008880000402b0060088800b0
:101534002142800080ff2f00008060000000a00096
:10154400204288000108a9002108a80011e1a80090
:101554000080fa00000006000000fa0005e1a9007e
:101564000421a9000068a9002068a80005e1a800da
:101574000000200081342400020007000080fa00eb
:10158400000006000400fa00881f7800008fbe00e7
:1015940021088000f0fc2f000080600020088800f3
:1015a4001e0178009e0190000068290081c124007a
:1015b400a3fc070018c0b30002f02f00f377240047
:1015c400e3fc07000000e00001003c000044eb00e5
:1015d4000804e0005400320021088000f0fc2f00d1
:1015e400008060000040a000200888001e017800f0
:1015f4009e0190000068290081c1240090fc07002e
:1016040002002000031024008dfc070018c0b30062
:1016140002f02f00f3772400cdfc07000000e00067
:1016240001003c000044eb000804e00032003200fa
:1016340021088000f0fc2f00008060000050a00012
:10164400200888001e0178009e019000006829008f
:1016540081c124007afc0700020020000328240032
:1016640077fc070018c0b30002f02f00f3772400c2
:10167400b7fc07000000e00001003c000044eb0060
:101684000804e0001000320021088000000320005c
:1016940001007000200888001e0178009e0190005f
:1016a4000068290081c1240065fc070002002000b5
:1016b4000338240062fc0700a7fc07000000780040
:1016c40010088800200037001e0178009e01900059
:1016d4000068290081c1240059fc07000200200091
:1016e4000328240056fc07009bfc07000000780038
:1016f40010088800140037001e0178009e01900035
:101704000068290081c124004dfc0700020020006c
:10171400031024004afc07008ffc07000000780037
:1017240010088800080037001e0178009e01900010
:101734000068290081c1240041fc070086fc0700e1
:1017440000007800100888004f0478000080fa0038
:10175400000006000000fa001fe1a9001e21a900f4
:101764000368a9002368a8001fe1a8000000200066
:10177400a1472400020007000080fa0000000600d0
:101784000400fa00881f7800008fbe00f108800072
:10179400f0fc2f0000806000f00888001e01780033
:1017a4009e0190000068290081c1240024fc0700e8
:1017b40018c0b30002f02f00f377240064fc070084
:1017c4000000e00001003c000044eb000804e000dd
:1017d40054003200f1088000f0fc2f00008060000b
:1017e4000040a000f00888001e0178009e019000cf
:1017f4000068290081c1240011fc070002002000b8
:10180400031024000efc070018c0b30002f02f00e0
:10181400f37724004efc07000000e00001003c00c8
:101824000044eb000804e00032003200f1088000bc
:10183400f0fc2f00008060000050a000f008880039
:101844001e0178009e0190000068290081c12400d7
:10185400fbfb07000200200003282400f8fb07001c
:1018640018c0b30002f02f00f377240038fc0700ff
:101874000000e00001003c000044eb000804e0002c
:1018840010003200f1088000000320000100700005
:10189400f00888001e0178009e019000006829006d
:1018a40081c12400e6fb0700020020000338240065
:1018b400e3fb070028fc070000007800d00888003c
:1018c400200037001e0178009e0190000068290066
:1018d40081c12400dafb0700020020000328240051
:1018e400d7fb07001cfc070000007800d008880024
:1018f400140037001e0178009e0190000068290042
:1019040081c12400cefb0700020020000310240044
:10191400cbfb070010fc070000007800d00888000b
:10192400080037001e0178009e019000006829001d
:1019340081c12400c2fb070007fc070000007800f7
:10194400d00888004f0478000080fa0000000600e8
:101954000000fa00889fbe008a1f780086020700f4
:10196400cc020700fcfe070038020700e1fe070076
:1019740078ff0700df00070076020700e14f500000
:1019840075003a00770207006e0207006080880045
:101994006080800066004000100078008000eb004a
:1019a4002cfc070032332300330524007efc07009f
:1019b4000200200003582400a1fb0700d2cc2c0015
:1019c400c304240078fc07000001be0000002000ce
:1019d400812024009afb070002002000030a24004f
:1019e40039fb0700408188005181880060808000b5
:1019f40064004000100078008000eb0015fc070034
:101a0400323323003305240067fc07000200200062
:101a1400035824008afb0700d2cc2c00c304240002
:101a240061fc07000001be000000200081202400aa
:101a340083fb070002002000030a240022fb0700a6
:101a440060818800718188006080800010007800c7
:101a54008000eb00fffb0700323323003305240032
:101a640051fc0700020020000358240074fb070007
:101a7400d2cc2c00c30424004bfc07000001be00a0
:101a840000002000812024006dfb070002002000dc
:101a9400030a24000cfb07008081880091818800e0
:101aa4006080800068004000100078008000eb0037
:101ab400e8fb070032332300330524003afc070017
:101ac40002002000035824005dfb0700d2cc2c0048
:101ad400c304240034fc07000001be000000200001
:101ae4008120240056fb070002002000030a240082
:101af400f5fa0700a0818800b18188006080800029
:101b04000080e800100078008000eb00d1fb0700a3
:101b1400323323003305240023fc07000200200095
:101b24000358240046fb0700d2cc2c00c304240035
:101b34001dfc07000001be000000200081202400dd
:101b44003ffb070002002000030a2400defa07001e
:101b5400c0818800d18188001172800000002200b9
:101b6400008060000000e0005e003200c881800058
:101b7400d981800050808000cf80de00b2fb070056
:101b84001ac0b3000001be000800be006efb0700cf
:101b94000000e000010035000045eb000a04e0000d
:101ba4000400320064cea80064eea800254ea9000b
:101bb40071ff370068818000798180005080800047
:101bc400cf80de00a0fb07001ac0b3000001be00f6
:101bd4000800be005cfb07000000e00001003500c7
:101be4000045eb000a04e0000400320064cea900c2
:101bf40064eea800254ea9005fff370048818000ed
:101c04005981800050808000cf80de008efb070069
:101c14001ac0b3000001be000800be004afb070062
:101c24000000e000010035000045eb000a04e0007c
:101c34000400320064cea90064eea900254ea80079
:101c44004dff37008881800099818000508080009a
:101c5400cf80de007cfb07001ac0b3000001be0089
:101c64000800be0038fb07000000e000010035005a
:101c74000045eb000a04e0000400320064cea80032
:101c840064eea900254ea9003bff3700a88180001f
:101c9400b981800050808000cf80de006afb07009d
:101ca4001ac0b3000001be000800be0026fb0700f6
:101cb4000000e000010035000045eb000a04e000ec
:101cc4000400320064cea90064eea800254ea800ea
:101cd40029ff370064cea90064eea900254ea900af
:101ce40025ff370064cea90064eea900254ea900a3
:101cf40021ff37000000fa001160800080ff2f00f0
:101d0400008060001060880000fa200020608800d5
:101d140023aca800238ca80011618000f03f2f00a1
:101d24000080600000a0a000106188003000200046
:101d340020618800c3aca800c38ca8001166800091
:101d4400f03f2f000080600000a0a0001066880013
:101d5400300020002066880001eca8000080fa0012
:101d6400000006000000fa00889fbe000481800085
:101d740015818000e0808000f180800018c0b300ed
:101d84000001be000400be00effa07000000e000fe
:101d9400010035000044eb000804e0000d003200af
:101da400e8808000f9808000048180001581800033
:101db40030808000418080000001be000400be002d
:101dc40042fa07000801be00c7000700008188002e
:101dd400118188000481800015818000e0808000ea
:101de400f180800018c0b3000001be000400be00f2
:101df400d7fa07000000e00001003c000044eb00bb
:101e04000804e0000d003200e8808000f9808000c2
:101e14000481800015818000308080004180800032
:101e24000001be000400be0027fa07000801be003e
:101e340095000700008188001181880000818000de
:101e44001181800018c0b3006011b800c0fa070007
:101e54000000e00001003c000044eb000804e00046
:101e640004003200c3cca90024eea800c3eca800ef
:101e740003003700c3eca90024cea800c3cca800fb
:101e840000818000118180006900070002002000a9
:101e94000322240044fb0700d0fa07000000780066
:101ea40030668800c4808000d5808000a0808000d7
:101eb400b180800018c0b3000001be000400be0061
:101ec400a1fa07000000e000010035000044eb0027
:101ed4000804e0000d003200a8808000b980800072
:101ee400c4808000d58080003080800041808000e4
:101ef4000001be000400be00f4f907000801be00a2
:101f040079000700c0808800d1808800c4808000e8
:101f1400d5808000a0808000b180800018c0b3000c
:101f24000001be000400be0089fa07000000e000c2
:101f340001003c000044eb000804e0000d00320006
:101f4400a8808000b9808000c4808000d580800093
:101f540030808000418080000001be000400be008b
:101f6400d9f907000801be0047000700c0808800b7
:101f7400d1808800c0808000d180800018c0b30068
:101f84006011b80072fa07000000e00001003c0094
:101f94000044eb000804e0000400320023cca90054
:101fa40015eea80023eca8000300370023eca900d9
:101fb40015cea80023cca800c0808000d18080006a
:101fc4001b0007000200200003222400f6fa070089
:101fd40082fa070000007800306188004f04be00d8
:101fe4000080fa00000006000600fa00008fbe0020
:101ff400424798004e4090000004e00006003a007a
:102004001e0078009e00900001f0a200a0808800cd
:10201400b1808800040037001e0178009e01900002
:10202400e2808800f38088000080fa000000060047
:102034000400fa00881f7800008fbe0018c0b300a7
:102044006011b8001e0078009e00900040fa07005e
:102054000000e00001003d000044eb000804e00043
:10206400030032001e0078009e0090000300370039
:102074001e0078009e00900001f0a2004f0478003a
:102084000080fa00000006000800fa00881f7800ab
:10209400008fbe00220798003307980018c0b300d1
:1020a4002e019000be0190001e0078009e0090005a
:1020b40027fa07000000e00001003c000044eb00a8
:1020c4000804e000030032001e0078009e00900027
:1020d400020037002e009000be0090004f047800ec
:1020e4000080fa00000006000800fa00881f78004b
:1020f400008fbe00220798003307980018c0b30071
:102104002e019000be0190001e0078009e009000f9
:102114000dfa07000000e000010035000044eb0068
:102124000804e000030032001e0078009e009000c6
:10213400020037002e009000be0090004f0478008b
:102144000080fa00000006000c00fa00881f7800e6
:10215400008fbe00220798003307980044079800b8
:102164005507980018c0b3004e019000de0190009e
:102174001e0078009e009000f5f907000000e000c2
:1021840001003c000044eb000804e00004003200bd
:102194004e019000de019000028fbe000e00370059
:1021a40018c0b3002e019000be0190001e007800fc
:1021b4009e009000e4f907000000e00001003500f3
:1021c4000044eb000804e000030032002e019000fc
:1021d400be019000028fbe001e0078009e00900099
:1021e4004f0478000080fa00000006000400fa00a2
:1021f400008fbe00b2fd2000930424001e0078006e
:102204009e0090008ef90700020020004333240052
:1022140065fa07000080fa00000006000400fa00d6
:10222400008fbe00b2fd2000930424001e0078003d
:102234009e0090005cfa0700020020004333240053
:102244007ff907000080fa00000006000000fa0091
:1022540021e3a9002143a80001198000f0cf2f0039
:1022640000806000001988002043a9000119800043
:10227400000e200001007000001988001119800070
:10228400f0ff210000806000101988002343a8009b
:1022940011198000f0cf2f00008060001019880011
:1022a4001119800030f82f00008060000040a00069
:1022b400101988002203a9002223a90025e3a900fc
:1022c400f0c0b30024e3b70021198000f00f2e0002
:1022d4008080600000f02000010070002019880058
:1022e4003303a9001e2ea8002e0ea8002f6ea800ee
:1022f4006f2ea8004feea8003063a80030c3a800da
:102304003163a8002e03a80031e3a800411980001e
:1023140000fc2f00008060004019880028e3a90019
:1023240001a8a90021a8a80021e3a8000080fa00c0
:10233400000006000000fa002023a8000080fa0034
:10234400000006000000fa00c00321000080fa002b
:10235400000006000000fa000fd0bf000080fa0061
:10236400000006000000fa0010c0b3000ff0b70030
:102374000080fa00000006000000fa00f0032000cc
:10238400303a8800213a8000f0f32f00008060008a
:10239400203a8800213a800000fe2f00008060006f
:1023a4000000a000203a88001200200080072000ce
:1023b400a109200033742000804978008149780005
:1023c40082497800103a8000000178000200a000e1
:1023d40060042000710520002374200080497800e7
:1023e400814978008249780000000000113a800099
:1023f400000027008080600000002100808f5000d2
:10240400faff3a0000000000113a800000022000a8
:10241400008060000000e000fbff32000080fa0052
:0424240000000600ae
:020000040000fa
:102428000a10000002000000820000001e000000e8
:102438000c100000020000008000000000100000e6
:102448000600000080000000121000002a000000b2
:102458008000000006100000040000008200000058
:1024680000002000410000003c1000000a000000ad
:10247800800000000e100000020000008000000034
:1024880010100000020000008000000000000000a2
:020000040000fa
:102498000000fa000e2eef001e2eef002e2eef0089
:1024a8003e2eef004e2eef005e2eef006e2eef0058
:1024b800214ea90060cea90060eea90011cea900a6
:1024c80011eea90020cea90020eea90041aea80077
:0824d8000080fa00000006007c
:020000040000fa
:02000004000af0
:04afe000cfff00009f
:020000040000fa
:02000004000af0
:04afe400ffff00006b
:020000040000fa
:02000004000af0
:04afe8007fff0000e7
:020000040000fa
:02000004000af0
:04afec005fff000003
:020000040000fa
:02000004000af0
:04aff00038ff000026
:020000040000fa
:02000004000af0
:04aff400ffff00005b
:00000001FF
